{
  "_format": "hh-sol-artifact-1",
  "contractName": "PhonkArenaResults",
  "sourceName": "contracts/PhonkArenaResults.sol",
  "abi": [
    {
      "inputs": [
        {
          "internalType": "uint256",
          "name": "_minDuration",
          "type": "uint256"
        }
      ],
      "stateMutability": "nonpayable",
      "type": "constructor"
    },
    {
      "anonymous": false,
      "inputs": [
        {
          "indexed": true,
          "internalType": "bytes32",
          "name": "matchId",
          "type": "bytes32"
        },
        {
          "indexed": false,
          "internalType": "uint8",
          "name": "winner",
          "type": "uint8"
        },
        {
          "indexed": false,
          "internalType": "uint256",
          "name": "endTime",
          "type": "uint256"
        }
      ],
      "name": "MatchFinalized",
      "type": "event"
    },
    {
      "anonymous": false,
      "inputs": [
        {
          "indexed": true,
          "internalType": "bytes32",
          "name": "matchId",
          "type": "bytes32"
        },
        {
          "indexed": false,
          "internalType": "uint256",
          "name": "startTime",
          "type": "uint256"
        }
      ],
      "name": "MatchStarted",
      "type": "event"
    },
    {
      "inputs": [
        {
          "internalType": "bytes32",
          "name": "matchId",
          "type": "bytes32"
        },
        {
          "internalType": "uint8",
          "name": "winner",
          "type": "uint8"
        }
      ],
      "name": "finalizeMatch",
      "outputs": [],
      "stateMutability": "nonpayable",
      "type": "function"
    },
    {
      "inputs": [
        {
          "internalType": "bytes32",
          "name": "",
          "type": "bytes32"
        }
      ],
      "name": "finalized",
      "outputs": [
        {
          "internalType": "bool",
          "name": "",
          "type": "bool"
        }
      ],
      "stateMutability": "view",
      "type": "function"
    },
    {
      "inputs": [],
      "name": "minDuration",
      "outputs": [
        {
          "internalType": "uint256",
          "name": "",
          "type": "uint256"
        }
      ],
      "stateMutability": "view",
      "type": "function"
    },
    {
      "inputs": [
        {
          "internalType": "bytes32",
          "name": "matchId",
          "type": "bytes32"
        }
      ],
      "name": "startMatch",
      "outputs": [],
      "stateMutability": "nonpayable",
      "type": "function"
    },
    {
      "inputs": [
        {
          "internalType": "bytes32",
          "name": "",
          "type": "bytes32"
        }
      ],
      "name": "startTimes",
      "outputs": [
        {
          "internalType": "uint256",
          "name": "",
          "type": "uint256"
        }
      ],
      "stateMutability": "view",
      "type": "function"
    },
    {
      "inputs": [
        {
          "internalType": "bytes32",
          "name": "",
          "type": "bytes32"
        }
      ],
      "name": "started",
      "outputs": [
        {
          "internalType": "bool",
          "name": "",
          "type": "bool"
        }
      ],
      "stateMutability": "view",
      "type": "function"
    }
  ],
  "bytecode": "0x60a060405234801561001057600080fd5b5060405161053938038061053983398101604081905261002f91610037565b608052610050565b60006020828403121561004957600080fd5b5051919050565b6080516104c16100786000396000818160d20152818161031d015261035601526104c16000f3fe608060405234801561001057600080fd5b50600436106100625760003560e01c80630abea26814610067578063132969be1461009f57806356715761146100cd5780635caad16a146100f45780639e7be9a314610109578063da22e8451461012c575b600080fd5b61008a610075366004610415565b60016020526000908152604090205460ff1681565b60405190151581526020015b60405180910390f35b6100bf6100ad366004610415565b60026020526000908152604090205481565b604051908152602001610096565b6100bf7f000000000000000000000000000000000000000000000000000000000000000081565b610107610102366004610415565b61013f565b005b61008a610117366004610415565b60006020819052908152604090205460ff1681565b61010761013a36600461042e565b610231565b806101845760405162461bcd60e51b815260206004820152601060248201526f1b585d18da1259081c995c5d5a5c995960821b60448201526064015b60405180910390fd5b60008181526020819052604090205460ff16156101d55760405162461bcd60e51b815260206004820152600f60248201526e185b1c9958591e481cdd185c9d1959608a1b604482015260640161017b565b600081815260208181526040808320805460ff1916600117905560028252918290204290819055915191825282917f8fb1555760fe793abe409774a8d4ef371b05c87a48fb9fa46ce6e47a0f5275aa910160405180910390a250565b60008281526020819052604090205460ff166102835760405162461bcd60e51b81526020600482015260116024820152701b585d18da081b9bdd081cdd185c9d1959607a1b604482015260640161017b565b60008281526001602052604090205460ff16156102d65760405162461bcd60e51b8152602060048201526011602482015270185b1c9958591e48199a5b985b1a5e9959607a1b604482015260640161017b565b60028160ff16111561031b5760405162461bcd60e51b815260206004820152600e60248201526d34b73b30b634b2103bb4b73732b960911b604482015260640161017b565b7f0000000000000000000000000000000000000000000000000000000000000000156103b65760008281526002602052604090205461037b907f000000000000000000000000000000000000000000000000000000000000000090610464565b4210156103b65760405162461bcd60e51b8152602060048201526009602482015268746f6f206561726c7960b81b604482015260640161017b565b600082815260016020818152604092839020805460ff1916909217909155815160ff84168152429181019190915283917f7bda5d03c9147dab0ea9e14707581effd7d674ab3230013350123f4c40960b98910160405180910390a25050565b60006020828403121561042757600080fd5b5035919050565b6000806040838503121561044157600080fd5b82359150602083013560ff8116811461045957600080fd5b809150509250929050565b8082018082111561048557634e487b7160e01b600052601160045260246000fd5b9291505056fea26469706673582212204acd8021a149650184e827191223f8f5c83938d3e15a551c98fc25a8c7e4cca764736f6c63430008180033",
  "linkReferences": {},
  "deployedLinkReferences": {}
}