{"contracts/PhonkArenaResults.sol":{"PhonkArenaResults":{"abi":[{"inputs":[{"internalType":"uint256","name":"_minDuration","type":"uint256"}],"stateMutability":"nonpayable","type":"constructor"},{"anonymous":false,"inputs":[{"indexed":true,"internalType":"bytes32","name":"matchId","type":"bytes32"},{"indexed":false,"internalType":"uint8","name":"winner","type":"uint8"},{"indexed":false,"internalType":"uint256","name":"endTime","type":"uint256"}],"name":"MatchFinalized","type":"event"},{"anonymous":false,"inputs":[{"indexed":true,"internalType":"bytes32","name":"matchId","type":"bytes32"},{"indexed":false,"internalType":"uint256","name":"startTime","type":"uint256"}],"name":"MatchStarted","type":"event"},{"inputs":[{"internalType":"bytes32","name":"matchId","type":"bytes32"},{"internalType":"uint8","name":"winner","type":"uint8"}],"name":"finalizeMatch","outputs":[],"stateMutability":"nonpayable","type":"function"},{"inputs":[{"internalType":"bytes32","name":"","type":"bytes32"}],"name":"finalized","outputs":[{"internalType":"bool","name":"","type":"bool"}],"stateMutability":"view","type":"function"},{"inputs":[],"name":"minDuration","outputs":[{"internalType":"uint256","name":"","type":"uint256"}],"stateMutability":"view","type":"function"},{"inputs":[{"internalType":"bytes32","name":"matchId","type":"bytes32"}],"name":"startMatch","outputs":[],"stateMutability":"nonpayable","type":"function"},{"inputs":[{"internalType":"bytes32","name":"","type":"bytes32"}],"name":"startTimes","outputs":[{"internalType":"uint256","name":"","type":"uint256"}],"stateMutability":"view","type":"function"},{"inputs":[{"internalType":"bytes32","name":"","type":"bytes32"}],"name":"started","outputs":[{"internalType":"bool","name":"","type":"bool"}],"stateMutability":"view","type":"function"}],"evm":{"bytecode":{"linkReferences":{},"object":"60a060405234801561001057600080fd5b5060405161053938038061053983398101604081905261002f91610037565b608052610050565b60006020828403121561004957600080fd5b5051919050565b6080516104c16100786000396000818160d20152818161031d015261035601526104c16000f3fe608060405234801561001057600080fd5b50600436106100625760003560e01c80630abea26814610067578063132969be1461009f57806356715761146100cd5780635caad16a146100f45780639e7be9a314610109578063da22e8451461012c575b600080fd5b61008a610075366004610415565b60016020526000908152604090205460ff1681565b60405190151581526020015b60405180910390f35b6100bf6100ad366004610415565b60026020526000908152604090205481565b604051908152602001610096565b6100bf7f000000000000000000000000000000000000000000000000000000000000000081565b610107610102366004610415565b61013f565b005b61008a610117366004610415565b60006020819052908152604090205460ff1681565b61010761013a36600461042e565b610231565b806101845760405162461bcd60e51b815260206004820152601060248201526f1b585d18da1259081c995c5d5a5c995960821b60448201526064015b60405180910390fd5b60008181526020819052604090205460ff16156101d55760405162461bcd60e51b815260206004820152600f60248201526e185b1c9958591e481cdd185c9d1959608a1b604482015260640161017b565b600081815260208181526040808320805460ff1916600117905560028252918290204290819055915191825282917f8fb1555760fe793abe409774a8d4ef371b05c87a48fb9fa46ce6e47a0f5275aa910160405180910390a250565b60008281526020819052604090205460ff166102835760405162461bcd60e51b81526020600482015260116024820152701b585d18da081b9bdd081cdd185c9d1959607a1b604482015260640161017b565b60008281526001602052604090205460ff16156102d65760405162461bcd60e51b8152602060048201526011602482015270185b1c9958591e48199a5b985b1a5e9959607a1b604482015260640161017b565b60028160ff16111561031b5760405162461bcd60e51b815260206004820152600e60248201526d34b73b30b634b2103bb4b73732b960911b604482015260640161017b565b7f0000000000000000000000000000000000000000000000000000000000000000156103b65760008281526002602052604090205461037b907f000000000000000000000000000000000000000000000000000000000000000090610464565b4210156103b65760405162461bcd60e51b8152602060048201526009602482015268746f6f206561726c7960b81b604482015260640161017b565b600082815260016020818152604092839020805460ff1916909217909155815160ff84168152429181019190915283917f7bda5d03c9147dab0ea9e14707581effd7d674ab3230013350123f4c40960b98910160405180910390a25050565b60006020828403121561042757600080fd5b5035919050565b6000806040838503121561044157600080fd5b82359150602083013560ff8116811461045957600080fd5b809150509250929050565b8082018082111561048557634e487b7160e01b600052601160045260246000fd5b9291505056fea26469706673582212204acd8021a149650184e827191223f8f5c83938d3e15a551c98fc25a8c7e4cca764736f6c63430008180033","opcodes":"PUSH1 0xA0 PUSH1 0x40 MSTORE CALLVALUE DUP1 ISZERO PUSH2 0x10 JUMPI PUSH1 0x0 DUP1 REVERT JUMPDEST POP PUSH1 0x40 MLOAD PUSH2 0x539 CODESIZE SUB DUP1 PUSH2 0x539 DUP4 CODECOPY DUP2 ADD PUSH1 0x40 DUP2 SWAP1 MSTORE PUSH2 0x2F SWAP2 PUSH2 0x37 JUMP JUMPDEST PUSH1 0x80 MSTORE PUSH2 0x50 JUMP JUMPDEST PUSH1 0x0 PUSH1 0x20 DUP3 DUP5 SUB SLT ISZERO PUSH2 0x49 JUMPI PUSH1 0x0 DUP1 REVERT JUMPDEST POP MLOAD SWAP2 SWAP1 POP JUMP JUMPDEST PUSH1 0x80 MLOAD PUSH2 0x4C1 PUSH2 0x78 PUSH1 0x0 CODECOPY PUSH1 0x0 DUP2 DUP2 PUSH1 0xD2 ADD MSTORE DUP2 DUP2 PUSH2 0x31D ADD MSTORE PUSH2 0x356 ADD MSTORE PUSH2 0x4C1 PUSH1 0x0 RETURN INVALID PUSH1 0x80 PUSH1 0x40 MSTORE CALLVALUE DUP1 ISZERO PUSH2 0x10 JUMPI PUSH1 0x0 DUP1 REVERT JUMPDEST POP PUSH1 0x4 CALLDATASIZE LT PUSH2 0x62 JUMPI PUSH1 0x0 CALLDATALOAD PUSH1 0xE0 SHR DUP1 PUSH4 0xABEA268 EQ PUSH2 0x67 JUMPI DUP1 PUSH4 0x132969BE EQ PUSH2 0x9F JUMPI DUP1 PUSH4 0x56715761 EQ PUSH2 0xCD JUMPI DUP1 PUSH4 0x5CAAD16A EQ PUSH2 0xF4 JUMPI DUP1 PUSH4 0x9E7BE9A3 EQ PUSH2 0x109 JUMPI DUP1 PUSH4 0xDA22E845 EQ PUSH2 0x12C JUMPI JUMPDEST PUSH1 0x0 DUP1 REVERT JUMPDEST PUSH2 0x8A PUSH2 0x75 CALLDATASIZE PUSH1 0x4 PUSH2 0x415 JUMP JUMPDEST PUSH1 0x1 PUSH1 0x20 MSTORE PUSH1 0x0 SWAP1 DUP2 MSTORE PUSH1 0x40 SWAP1 KECCAK256 SLOAD PUSH1 0xFF AND DUP2 JUMP JUMPDEST PUSH1 0x40 MLOAD SWAP1 ISZERO ISZERO DUP2 MSTORE PUSH1 0x20 ADD JUMPDEST PUSH1 0x40 MLOAD DUP1 SWAP2 SUB SWAP1 RETURN JUMPDEST PUSH2 0xBF PUSH2 0xAD CALLDATASIZE PUSH1 0x4 PUSH2 0x415 JUMP JUMPDEST PUSH1 0x2 PUSH1 0x20 MSTORE PUSH1 0x0 SWAP1 DUP2 MSTORE PUSH1 0x40 SWAP1 KECCAK256 SLOAD DUP2 JUMP JUMPDEST PUSH1 0x40 MLOAD SWAP1 DUP2 MSTORE PUSH1 0x20 ADD PUSH2 0x96 JUMP JUMPDEST PUSH2 0xBF PUSH32 0x0 DUP2 JUMP JUMPDEST PUSH2 0x107 PUSH2 0x102 CALLDATASIZE PUSH1 0x4 PUSH2 0x415 JUMP JUMPDEST PUSH2 0x13F JUMP JUMPDEST STOP JUMPDEST PUSH2 0x8A PUSH2 0x117 CALLDATASIZE PUSH1 0x4 PUSH2 0x415 JUMP JUMPDEST PUSH1 0x0 PUSH1 0x20 DUP2 SWAP1 MSTORE SWAP1 DUP2 MSTORE PUSH1 0x40 SWAP1 KECCAK256 SLOAD PUSH1 0xFF AND DUP2 JUMP JUMPDEST PUSH2 0x107 PUSH2 0x13A CALLDATASIZE PUSH1 0x4 PUSH2 0x42E JUMP JUMPDEST PUSH2 0x231 JUMP JUMPDEST DUP1 PUSH2 0x184 JUMPI PUSH1 0x40 MLOAD PUSH3 0x461BCD PUSH1 0xE5 SHL DUP2 MSTORE PUSH1 0x20 PUSH1 0x4 DUP3 ADD MSTORE PUSH1 0x10 PUSH1 0x24 DUP3 ADD MSTORE PUSH16 0x1B585D18DA1259081C995C5D5A5C9959 PUSH1 0x82 SHL PUSH1 0x44 DUP3 ADD MSTORE PUSH1 0x64 ADD JUMPDEST PUSH1 0x40 MLOAD DUP1 SWAP2 SUB SWAP1 REVERT JUMPDEST PUSH1 0x0 DUP2 DUP2 MSTORE PUSH1 0x20 DUP2 SWAP1 MSTORE PUSH1 0x40 SWAP1 KECCAK256 SLOAD PUSH1 0xFF AND ISZERO PUSH2 0x1D5 JUMPI PUSH1 0x40 MLOAD PUSH3 0x461BCD PUSH1 0xE5 SHL DUP2 MSTORE PUSH1 0x20 PUSH1 0x4 DUP3 ADD MSTORE PUSH1 0xF PUSH1 0x24 DUP3 ADD MSTORE PUSH15 0x185B1C9958591E481CDD185C9D1959 PUSH1 0x8A SHL PUSH1 0x44 DUP3 ADD MSTORE PUSH1 0x64 ADD PUSH2 0x17B JUMP JUMPDEST PUSH1 0x0 DUP2 DUP2 MSTORE PUSH1 0x20 DUP2 DUP2 MSTORE PUSH1 0x40 DUP1 DUP4 KECCAK256 DUP1 SLOAD PUSH1 0xFF NOT AND PUSH1 0x1 OR SWAP1 SSTORE PUSH1 0x2 DUP3 MSTORE SWAP2 DUP3 SWAP1 KECCAK256 TIMESTAMP SWAP1 DUP2 SWAP1 SSTORE SWAP2 MLOAD SWAP2 DUP3 MSTORE DUP3 SWAP2 PUSH32 0x8FB1555760FE793ABE409774A8D4EF371B05C87A48FB9FA46CE6E47A0F5275AA SWAP2 ADD PUSH1 0x40 MLOAD DUP1 SWAP2 SUB SWAP1 LOG2 POP JUMP JUMPDEST PUSH1 0x0 DUP3 DUP2 MSTORE PUSH1 0x20 DUP2 SWAP1 MSTORE PUSH1 0x40 SWAP1 KECCAK256 SLOAD PUSH1 0xFF AND PUSH2 0x283 JUMPI PUSH1 0x40 MLOAD PUSH3 0x461BCD PUSH1 0xE5 SHL DUP2 MSTORE PUSH1 0x20 PUSH1 0x4 DUP3 ADD MSTORE PUSH1 0x11 PUSH1 0x24 DUP3 ADD MSTORE PUSH17 0x1B585D18DA081B9BDD081CDD185C9D1959 PUSH1 0x7A SHL PUSH1 0x44 DUP3 ADD MSTORE PUSH1 0x64 ADD PUSH2 0x17B JUMP JUMPDEST PUSH1 0x0 DUP3 DUP2 MSTORE PUSH1 0x1 PUSH1 0x20 MSTORE PUSH1 0x40 SWAP1 KECCAK256 SLOAD PUSH1 0xFF AND ISZERO PUSH2 0x2D6 JUMPI PUSH1 0x40 MLOAD PUSH3 0x461BCD PUSH1 0xE5 SHL DUP2 MSTORE PUSH1 0x20 PUSH1 0x4 DUP3 ADD MSTORE PUSH1 0x11 PUSH1 0x24 DUP3 ADD MSTORE PUSH17 0x185B1C9958591E48199A5B985B1A5E9959 PUSH1 0x7A SHL PUSH1 0x44 DUP3 ADD MSTORE PUSH1 0x64 ADD PUSH2 0x17B JUMP JUMPDEST PUSH1 0x2 DUP2 PUSH1 0xFF AND GT ISZERO PUSH2 0x31B JUMPI PUSH1 0x40 MLOAD PUSH3 0x461BCD PUSH1 0xE5 SHL DUP2 MSTORE PUSH1 0x20 PUSH1 0x4 DUP3 ADD MSTORE PUSH1 0xE PUSH1 0x24 DUP3 ADD MSTORE PUSH14 0x34B73B30B634B2103BB4B73732B9 PUSH1 0x91 SHL PUSH1 0x44 DUP3 ADD MSTORE PUSH1 0x64 ADD PUSH2 0x17B JUMP JUMPDEST PUSH32 0x0 ISZERO PUSH2 0x3B6 JUMPI PUSH1 0x0 DUP3 DUP2 MSTORE PUSH1 0x2 PUSH1 0x20 MSTORE PUSH1 0x40 SWAP1 KECCAK256 SLOAD PUSH2 0x37B SWAP1 PUSH32 0x0 SWAP1 PUSH2 0x464 JUMP JUMPDEST TIMESTAMP LT ISZERO PUSH2 0x3B6 JUMPI PUSH1 0x40 MLOAD PUSH3 0x461BCD PUSH1 0xE5 SHL DUP2 MSTORE PUSH1 0x20 PUSH1 0x4 DUP3 ADD MSTORE PUSH1 0x9 PUSH1 0x24 DUP3 ADD MSTORE PUSH9 0x746F6F206561726C79 PUSH1 0xB8 SHL PUSH1 0x44 DUP3 ADD MSTORE PUSH1 0x64 ADD PUSH2 0x17B JUMP JUMPDEST PUSH1 0x0 DUP3 DUP2 MSTORE PUSH1 0x1 PUSH1 0x20 DUP2 DUP2 MSTORE PUSH1 0x40 SWAP3 DUP4 SWAP1 KECCAK256 DUP1 SLOAD PUSH1 0xFF NOT AND SWAP1 SWAP3 OR SWAP1 SWAP2 SSTORE DUP2 MLOAD PUSH1 0xFF DUP5 AND DUP2 MSTORE TIMESTAMP SWAP2 DUP2 ADD SWAP2 SWAP1 SWAP2 MSTORE DUP4 SWAP2 PUSH32 0x7BDA5D03C9147DAB0EA9E14707581EFFD7D674AB3230013350123F4C40960B98 SWAP2 ADD PUSH1 0x40 MLOAD DUP1 SWAP2 SUB SWAP1 LOG2 POP POP JUMP JUMPDEST PUSH1 0x0 PUSH1 0x20 DUP3 DUP5 SUB SLT ISZERO PUSH2 0x427 JUMPI PUSH1 0x0 DUP1 REVERT JUMPDEST POP CALLDATALOAD SWAP2 SWAP1 POP JUMP JUMPDEST PUSH1 0x0 DUP1 PUSH1 0x40 DUP4 DUP6 SUB SLT ISZERO PUSH2 0x441 JUMPI PUSH1 0x0 DUP1 REVERT JUMPDEST DUP3 CALLDATALOAD SWAP2 POP PUSH1 0x20 DUP4 ADD CALLDATALOAD PUSH1 0xFF DUP2 AND DUP2 EQ PUSH2 0x459 JUMPI PUSH1 0x0 DUP1 REVERT JUMPDEST DUP1 SWAP2 POP POP SWAP3 POP SWAP3 SWAP1 POP JUMP JUMPDEST DUP1 DUP3 ADD DUP1 DUP3 GT ISZERO PUSH2 0x485 JUMPI PUSH4 0x4E487B71 PUSH1 0xE0 SHL PUSH1 0x0 MSTORE PUSH1 0x11 PUSH1 0x4 MSTORE PUSH1 0x24 PUSH1 0x0 REVERT JUMPDEST SWAP3 SWAP2 POP POP JUMP INVALID LOG2 PUSH5 0x6970667358 0x22 SLT KECCAK256 BLOBBASEFEE 0xCD DUP1 0x21 LOG1 BLOBHASH PUSH6 0x184E8271912 0x23 0xF8 CREATE2 0xC8 CODECOPY CODESIZE 0xD3 0xE1 GAS SSTORE SHR SWAP9 0xFC 0x25 0xA8 0xC7 0xE4 0xCC 0xA7 PUSH5 0x736F6C6343 STOP ADDMOD XOR STOP CALLER "},"methodIdentifiers":{"finalizeMatch(bytes32,uint8)":"da22e845","finalized(bytes32)":"0abea268","minDuration()":"56715761","startMatch(bytes32)":"5caad16a","startTimes(bytes32)":"132969be","started(bytes32)":"9e7be9a3"}}}}}