{
  "_format": "hh-sol-artifact-1",
  "contractName": "PhonkArenaSidecar",
  "sourceName": "contracts/PhonkArenaSidecar.sol",
  "abi": [
    {
      "inputs": [
        {
          "internalType": "uint64",
          "name": "epochDurationSeconds",
          "type": "uint64"
        }
      ],
      "stateMutability": "nonpayable",
      "type": "constructor"
    },
    {
      "inputs": [],
      "name": "AccessControlBadConfirmation",
      "type": "error"
    },
    {
      "inputs": [
        {
          "internalType": "address",
          "name": "account",
          "type": "address"
        },
        {
          "internalType": "bytes32",
          "name": "neededRole",
          "type": "bytes32"
        }
      ],
      "name": "AccessControlUnauthorizedAccount",
      "type": "error"
    },
    {
      "inputs": [],
      "name": "BetAlreadyClaimed",
      "type": "error"
    },
    {
      "inputs": [],
      "name": "EpochAlreadyFinalized",
      "type": "error"
    },
    {
      "inputs": [],
      "name": "EpochNotFinalized",
      "type": "error"
    },
    {
      "inputs": [],
      "name": "EpochNotOpen",
      "type": "error"
    },
    {
      "inputs": [],
      "name": "EpochStillActive",
      "type": "error"
    },
    {
      "inputs": [],
      "name": "FailedCall",
      "type": "error"
    },
    {
      "inputs": [],
      "name": "IncompleteSelections",
      "type": "error"
    },
    {
      "inputs": [
        {
          "internalType": "uint256",
          "name": "balance",
          "type": "uint256"
        },
        {
          "internalType": "uint256",
          "name": "needed",
          "type": "uint256"
        }
      ],
      "name": "InsufficientBalance",
      "type": "error"
    },
    {
      "inputs": [],
      "name": "InvalidAgentId",
      "type": "error"
    },
    {
      "inputs": [],
      "name": "InvalidStartPrice",
      "type": "error"
    },
    {
      "inputs": [],
      "name": "MultipleAgentsNotAllowed",
      "type": "error"
    },
    {
      "inputs": [],
      "name": "NoBetFound",
      "type": "error"
    },
    {
      "inputs": [],
      "name": "NothingToClaim",
      "type": "error"
    },
    {
      "inputs": [],
      "name": "ReentrancyGuardReentrantCall",
      "type": "error"
    },
    {
      "inputs": [],
      "name": "SelectionAlreadyRecorded",
      "type": "error"
    },
    {
      "inputs": [],
      "name": "ZeroAddress",
      "type": "error"
    },
    {
      "inputs": [],
      "name": "ZeroAmount",
      "type": "error"
    },
    {
      "anonymous": false,
      "inputs": [
        {
          "indexed": true,
          "internalType": "uint256",
          "name": "epochId",
          "type": "uint256"
        },
        {
          "indexed": true,
          "internalType": "address",
          "name": "user",
          "type": "address"
        },
        {
          "indexed": true,
          "internalType": "uint8",
          "name": "agentId",
          "type": "uint8"
        },
        {
          "indexed": false,
          "internalType": "uint256",
          "name": "amount",
          "type": "uint256"
        }
      ],
      "name": "BetPlaced",
      "type": "event"
    },
    {
      "anonymous": false,
      "inputs": [
        {
          "indexed": true,
          "internalType": "uint256",
          "name": "epochId",
          "type": "uint256"
        },
        {
          "indexed": true,
          "internalType": "address",
          "name": "user",
          "type": "address"
        },
        {
          "indexed": false,
          "internalType": "uint256",
          "name": "amount",
          "type": "uint256"
        }
      ],
      "name": "Claimed",
      "type": "event"
    },
    {
      "anonymous": false,
      "inputs": [
        {
          "indexed": true,
          "internalType": "uint256",
          "name": "epochId",
          "type": "uint256"
        },
        {
          "indexed": false,
          "internalType": "uint8",
          "name": "winnerAgentId",
          "type": "uint8"
        },
        {
          "indexed": false,
          "internalType": "uint256",
          "name": "totalPool",
          "type": "uint256"
        }
      ],
      "name": "EpochFinalized",
      "type": "event"
    },
    {
      "anonymous": false,
      "inputs": [
        {
          "indexed": true,
          "internalType": "bytes32",
          "name": "role",
          "type": "bytes32"
        },
        {
          "indexed": true,
          "internalType": "bytes32",
          "name": "previousAdminRole",
          "type": "bytes32"
        },
        {
          "indexed": true,
          "internalType": "bytes32",
          "name": "newAdminRole",
          "type": "bytes32"
        }
      ],
      "name": "RoleAdminChanged",
      "type": "event"
    },
    {
      "anonymous": false,
      "inputs": [
        {
          "indexed": true,
          "internalType": "bytes32",
          "name": "role",
          "type": "bytes32"
        },
        {
          "indexed": true,
          "internalType": "address",
          "name": "account",
          "type": "address"
        },
        {
          "indexed": true,
          "internalType": "address",
          "name": "sender",
          "type": "address"
        }
      ],
      "name": "RoleGranted",
      "type": "event"
    },
    {
      "anonymous": false,
      "inputs": [
        {
          "indexed": true,
          "internalType": "bytes32",
          "name": "role",
          "type": "bytes32"
        },
        {
          "indexed": true,
          "internalType": "address",
          "name": "account",
          "type": "address"
        },
        {
          "indexed": true,
          "internalType": "address",
          "name": "sender",
          "type": "address"
        }
      ],
      "name": "RoleRevoked",
      "type": "event"
    },
    {
      "anonymous": false,
      "inputs": [
        {
          "indexed": true,
          "internalType": "uint256",
          "name": "epochId",
          "type": "uint256"
        },
        {
          "indexed": true,
          "internalType": "uint8",
          "name": "agentId",
          "type": "uint8"
        },
        {
          "indexed": false,
          "internalType": "address",
          "name": "tokenAddress",
          "type": "address"
        },
        {
          "indexed": false,
          "internalType": "string",
          "name": "tokenSymbol",
          "type": "string"
        }
      ],
      "name": "TokenSelectionRecorded",
      "type": "event"
    },
    {
      "inputs": [],
      "name": "AGENT_COUNT",
      "outputs": [
        {
          "internalType": "uint8",
          "name": "",
          "type": "uint8"
        }
      ],
      "stateMutability": "view",
      "type": "function"
    },
    {
      "inputs": [],
      "name": "DEFAULT_ADMIN_ROLE",
      "outputs": [
        {
          "internalType": "bytes32",
          "name": "",
          "type": "bytes32"
        }
      ],
      "stateMutability": "view",
      "type": "function"
    },
    {
      "inputs": [],
      "name": "DEFAULT_EPOCH_DURATION",
      "outputs": [
        {
          "internalType": "uint64",
          "name": "",
          "type": "uint64"
        }
      ],
      "stateMutability": "view",
      "type": "function"
    },
    {
      "inputs": [],
      "name": "ORACLE_ROLE",
      "outputs": [
        {
          "internalType": "bytes32",
          "name": "",
          "type": "bytes32"
        }
      ],
      "stateMutability": "view",
      "type": "function"
    },
    {
      "inputs": [],
      "name": "TIE_WINNER",
      "outputs": [
        {
          "internalType": "uint8",
          "name": "",
          "type": "uint8"
        }
      ],
      "stateMutability": "view",
      "type": "function"
    },
    {
      "inputs": [
        {
          "internalType": "uint256",
          "name": "epochId",
          "type": "uint256"
        }
      ],
      "name": "claim",
      "outputs": [],
      "stateMutability": "nonpayable",
      "type": "function"
    },
    {
      "inputs": [
        {
          "internalType": "uint256",
          "name": "epochId",
          "type": "uint256"
        },
        {
          "internalType": "address",
          "name": "user",
          "type": "address"
        }
      ],
      "name": "claimed",
      "outputs": [
        {
          "internalType": "bool",
          "name": "",
          "type": "bool"
        }
      ],
      "stateMutability": "view",
      "type": "function"
    },
    {
      "inputs": [],
      "name": "currentEpochId",
      "outputs": [
        {
          "internalType": "uint256",
          "name": "",
          "type": "uint256"
        }
      ],
      "stateMutability": "view",
      "type": "function"
    },
    {
      "inputs": [],
      "name": "epochDuration",
      "outputs": [
        {
          "internalType": "uint64",
          "name": "",
          "type": "uint64"
        }
      ],
      "stateMutability": "view",
      "type": "function"
    },
    {
      "inputs": [
        {
          "internalType": "uint256",
          "name": "epochId",
          "type": "uint256"
        }
      ],
      "name": "epochEnd",
      "outputs": [
        {
          "internalType": "uint256",
          "name": "",
          "type": "uint256"
        }
      ],
      "stateMutability": "view",
      "type": "function"
    },
    {
      "inputs": [
        {
          "internalType": "uint256",
          "name": "",
          "type": "uint256"
        }
      ],
      "name": "epochFinalized",
      "outputs": [
        {
          "internalType": "bool",
          "name": "",
          "type": "bool"
        }
      ],
      "stateMutability": "view",
      "type": "function"
    },
    {
      "inputs": [
        {
          "internalType": "uint256",
          "name": "",
          "type": "uint256"
        },
        {
          "internalType": "uint256",
          "name": "",
          "type": "uint256"
        }
      ],
      "name": "epochPools",
      "outputs": [
        {
          "internalType": "uint256",
          "name": "",
          "type": "uint256"
        }
      ],
      "stateMutability": "view",
      "type": "function"
    },
    {
      "inputs": [
        {
          "internalType": "uint256",
          "name": "",
          "type": "uint256"
        },
        {
          "internalType": "uint256",
          "name": "",
          "type": "uint256"
        }
      ],
      "name": "epochScores",
      "outputs": [
        {
          "internalType": "uint256",
          "name": "",
          "type": "uint256"
        }
      ],
      "stateMutability": "view",
      "type": "function"
    },
    {
      "inputs": [
        {
          "internalType": "uint256",
          "name": "",
          "type": "uint256"
        },
        {
          "internalType": "uint8",
          "name": "",
          "type": "uint8"
        }
      ],
      "name": "epochSelections",
      "outputs": [
        {
          "internalType": "address",
          "name": "tokenAddress",
          "type": "address"
        },
        {
          "internalType": "string",
          "name": "tokenSymbol",
          "type": "string"
        },
        {
          "internalType": "uint256",
          "name": "startPriceUsdE8",
          "type": "uint256"
        },
        {
          "internalType": "uint256",
          "name": "startVolume24h",
          "type": "uint256"
        },
        {
          "internalType": "uint256",
          "name": "startHolderCount",
          "type": "uint256"
        },
        {
          "internalType": "uint256",
          "name": "startLiquidityUsd",
          "type": "uint256"
        },
        {
          "internalType": "uint256",
          "name": "startTxCount24h",
          "type": "uint256"
        },
        {
          "internalType": "uint64",
          "name": "timestamp",
          "type": "uint64"
        },
        {
          "internalType": "bool",
          "name": "recorded",
          "type": "bool"
        }
      ],
      "stateMutability": "view",
      "type": "function"
    },
    {
      "inputs": [
        {
          "internalType": "uint256",
          "name": "epochId",
          "type": "uint256"
        }
      ],
      "name": "epochStart",
      "outputs": [
        {
          "internalType": "uint256",
          "name": "",
          "type": "uint256"
        }
      ],
      "stateMutability": "view",
      "type": "function"
    },
    {
      "inputs": [
        {
          "internalType": "uint256",
          "name": "",
          "type": "uint256"
        }
      ],
      "name": "epochTotalPool",
      "outputs": [
        {
          "internalType": "uint256",
          "name": "",
          "type": "uint256"
        }
      ],
      "stateMutability": "view",
      "type": "function"
    },
    {
      "inputs": [
        {
          "internalType": "uint256",
          "name": "",
          "type": "uint256"
        }
      ],
      "name": "epochWinner",
      "outputs": [
        {
          "internalType": "uint8",
          "name": "",
          "type": "uint8"
        }
      ],
      "stateMutability": "view",
      "type": "function"
    },
    {
      "inputs": [
        {
          "internalType": "uint256",
          "name": "epochId",
          "type": "uint256"
        },
        {
          "internalType": "uint256[4]",
          "name": "finalPriceUsdE8",
          "type": "uint256[4]"
        },
        {
          "internalType": "uint256[4]",
          "name": "finalVolume24h",
          "type": "uint256[4]"
        },
        {
          "internalType": "uint256[4]",
          "name": "finalHolderCount",
          "type": "uint256[4]"
        },
        {
          "internalType": "uint256[4]",
          "name": "finalLiquidityUsd",
          "type": "uint256[4]"
        },
        {
          "internalType": "uint256[4]",
          "name": "finalTxCount24h",
          "type": "uint256[4]"
        }
      ],
      "name": "finalizeEpoch",
      "outputs": [],
      "stateMutability": "nonpayable",
      "type": "function"
    },
    {
      "inputs": [
        {
          "internalType": "uint256",
          "name": "epochId",
          "type": "uint256"
        }
      ],
      "name": "getEpochPool",
      "outputs": [
        {
          "internalType": "uint256[4]",
          "name": "pools",
          "type": "uint256[4]"
        },
        {
          "internalType": "uint256",
          "name": "totalPool",
          "type": "uint256"
        }
      ],
      "stateMutability": "view",
      "type": "function"
    },
    {
      "inputs": [
        {
          "internalType": "uint256",
          "name": "epochId",
          "type": "uint256"
        }
      ],
      "name": "getEpochResult",
      "outputs": [
        {
          "internalType": "bool",
          "name": "finalized",
          "type": "bool"
        },
        {
          "internalType": "uint8",
          "name": "winnerAgentId",
          "type": "uint8"
        },
        {
          "internalType": "uint256[4]",
          "name": "scores",
          "type": "uint256[4]"
        },
        {
          "internalType": "uint256",
          "name": "totalPool",
          "type": "uint256"
        }
      ],
      "stateMutability": "view",
      "type": "function"
    },
    {
      "inputs": [
        {
          "internalType": "uint256",
          "name": "epochId",
          "type": "uint256"
        }
      ],
      "name": "getEpochScores",
      "outputs": [
        {
          "internalType": "uint256[4]",
          "name": "",
          "type": "uint256[4]"
        }
      ],
      "stateMutability": "view",
      "type": "function"
    },
    {
      "inputs": [
        {
          "internalType": "uint256",
          "name": "epochId",
          "type": "uint256"
        },
        {
          "internalType": "uint8",
          "name": "agentId",
          "type": "uint8"
        }
      ],
      "name": "getEpochTokenSelection",
      "outputs": [
        {
          "components": [
            {
              "internalType": "address",
              "name": "tokenAddress",
              "type": "address"
            },
            {
              "internalType": "string",
              "name": "tokenSymbol",
              "type": "string"
            },
            {
              "internalType": "uint256",
              "name": "startPriceUsdE8",
              "type": "uint256"
            },
            {
              "internalType": "uint256",
              "name": "startVolume24h",
              "type": "uint256"
            },
            {
              "internalType": "uint256",
              "name": "startHolderCount",
              "type": "uint256"
            },
            {
              "internalType": "uint256",
              "name": "startLiquidityUsd",
              "type": "uint256"
            },
            {
              "internalType": "uint256",
              "name": "startTxCount24h",
              "type": "uint256"
            },
            {
              "internalType": "uint64",
              "name": "timestamp",
              "type": "uint64"
            },
            {
              "internalType": "bool",
              "name": "recorded",
              "type": "bool"
            }
          ],
          "internalType": "struct PhonkArenaSidecar.TokenSelection",
          "name": "",
          "type": "tuple"
        }
      ],
      "stateMutability": "view",
      "type": "function"
    },
    {
      "inputs": [
        {
          "internalType": "bytes32",
          "name": "role",
          "type": "bytes32"
        }
      ],
      "name": "getRoleAdmin",
      "outputs": [
        {
          "internalType": "bytes32",
          "name": "",
          "type": "bytes32"
        }
      ],
      "stateMutability": "view",
      "type": "function"
    },
    {
      "inputs": [
        {
          "internalType": "uint256",
          "name": "epochId",
          "type": "uint256"
        },
        {
          "internalType": "address",
          "name": "user",
          "type": "address"
        }
      ],
      "name": "getUserBet",
      "outputs": [
        {
          "components": [
            {
              "internalType": "uint8",
              "name": "agentId",
              "type": "uint8"
            },
            {
              "internalType": "uint256",
              "name": "amount",
              "type": "uint256"
            },
            {
              "internalType": "bool",
              "name": "claimed",
              "type": "bool"
            },
            {
              "internalType": "bool",
              "name": "exists",
              "type": "bool"
            }
          ],
          "internalType": "struct PhonkArenaSidecar.UserBet",
          "name": "",
          "type": "tuple"
        }
      ],
      "stateMutability": "view",
      "type": "function"
    },
    {
      "inputs": [
        {
          "internalType": "bytes32",
          "name": "role",
          "type": "bytes32"
        },
        {
          "internalType": "address",
          "name": "account",
          "type": "address"
        }
      ],
      "name": "grantRole",
      "outputs": [],
      "stateMutability": "nonpayable",
      "type": "function"
    },
    {
      "inputs": [
        {
          "internalType": "bytes32",
          "name": "role",
          "type": "bytes32"
        },
        {
          "internalType": "address",
          "name": "account",
          "type": "address"
        }
      ],
      "name": "hasRole",
      "outputs": [
        {
          "internalType": "bool",
          "name": "",
          "type": "bool"
        }
      ],
      "stateMutability": "view",
      "type": "function"
    },
    {
      "inputs": [
        {
          "internalType": "uint256",
          "name": "epochId",
          "type": "uint256"
        }
      ],
      "name": "isEpochOpen",
      "outputs": [
        {
          "internalType": "bool",
          "name": "",
          "type": "bool"
        }
      ],
      "stateMutability": "view",
      "type": "function"
    },
    {
      "inputs": [
        {
          "internalType": "uint256",
          "name": "epochId",
          "type": "uint256"
        },
        {
          "internalType": "uint8",
          "name": "agentId",
          "type": "uint8"
        }
      ],
      "name": "placeBet",
      "outputs": [],
      "stateMutability": "payable",
      "type": "function"
    },
    {
      "inputs": [
        {
          "internalType": "uint256",
          "name": "epochId",
          "type": "uint256"
        },
        {
          "internalType": "uint8",
          "name": "agentId",
          "type": "uint8"
        },
        {
          "internalType": "address",
          "name": "tokenAddress",
          "type": "address"
        },
        {
          "internalType": "string",
          "name": "tokenSymbol",
          "type": "string"
        },
        {
          "internalType": "uint256",
          "name": "startPriceUsdE8",
          "type": "uint256"
        },
        {
          "internalType": "uint256",
          "name": "startVolume24h",
          "type": "uint256"
        },
        {
          "internalType": "uint256",
          "name": "startHolderCount",
          "type": "uint256"
        },
        {
          "internalType": "uint256",
          "name": "startLiquidityUsd",
          "type": "uint256"
        },
        {
          "internalType": "uint256",
          "name": "startTxCount24h",
          "type": "uint256"
        }
      ],
      "name": "recordTokenSelection",
      "outputs": [],
      "stateMutability": "nonpayable",
      "type": "function"
    },
    {
      "inputs": [
        {
          "internalType": "bytes32",
          "name": "role",
          "type": "bytes32"
        },
        {
          "internalType": "address",
          "name": "callerConfirmation",
          "type": "address"
        }
      ],
      "name": "renounceRole",
      "outputs": [],
      "stateMutability": "nonpayable",
      "type": "function"
    },
    {
      "inputs": [
        {
          "internalType": "bytes32",
          "name": "role",
          "type": "bytes32"
        },
        {
          "internalType": "address",
          "name": "account",
          "type": "address"
        }
      ],
      "name": "revokeRole",
      "outputs": [],
      "stateMutability": "nonpayable",
      "type": "function"
    },
    {
      "inputs": [
        {
          "internalType": "bytes4",
          "name": "interfaceId",
          "type": "bytes4"
        }
      ],
      "name": "supportsInterface",
      "outputs": [
        {
          "internalType": "bool",
          "name": "",
          "type": "bool"
        }
      ],
      "stateMutability": "view",
      "type": "function"
    },
    {
      "inputs": [
        {
          "internalType": "uint256",
          "name": "",
          "type": "uint256"
        },
        {
          "internalType": "address",
          "name": "",
          "type": "address"
        }
      ],
      "name": "userBets",
      "outputs": [
        {
          "internalType": "uint8",
          "name": "agentId",
          "type": "uint8"
        },
        {
          "internalType": "uint256",
          "name": "amount",
          "type": "uint256"
        },
        {
          "internalType": "bool",
          "name": "claimed",
          "type": "bool"
        },
        {
          "internalType": "bool",
          "name": "exists",
          "type": "bool"
        }
      ],
      "stateMutability": "view",
      "type": "function"
    }
  ],
  "bytecode": "0x60a06040523480156200001157600080fd5b50604051620025d7380380620025d7833981016040819052620000349162000151565b600180556001600160401b038116156200004f578062000054565b620151805b6001600160401b03166080526200006d600033620000a2565b506200009a7f68e79a7bf1e0bc45d0a330c573bc367f9cf464fd326078812f301165fbda4ef133620000a2565b505062000183565b6000828152602081815260408083206001600160a01b038516845290915281205460ff1662000147576000838152602081815260408083206001600160a01b03861684529091529020805460ff19166001179055620000fe3390565b6001600160a01b0316826001600160a01b0316847f2f8788117e7eff1d82e926ec794901d17c78024a50270940304540a733656f0d60405160405180910390a45060016200014b565b5060005b92915050565b6000602082840312156200016457600080fd5b81516001600160401b03811681146200017c57600080fd5b9392505050565b608051612423620001b46000396000818161040c0152818161115201528181611454015261149e01526124236000f3fe6080604052600436106101ee5760003560e01c806399d714091161010d578063bd1ca875116100a0578063d547741f1161006f578063d547741f14610762578063d985ee1b14610782578063d9be1efe146107a2578063eacdc5ff146107c2578063eb899424146107d757600080fd5b8063bd1ca875146105fd578063c03fb87c14610632578063cafef3b514610712578063d387cda91461074257600080fd5b8063aa9354a3116100dc578063aa9354a314610553578063b32ebc8c14610573578063b5a92446146105a0578063b8ce7539146105cd57600080fd5b806399d71409146104e75780639a2f7979146105075780639b2ce1261461051e578063a217fddf1461053e57600080fd5b80632d14c84f116101855780634ff0876a116101545780634ff0876a146103fa5780637d06a8e11461044657806390a566711461037357806391d14854146104c757600080fd5b80632d14c84f146103735780632f2ff15d1461039a57806336568abe146103ba578063379607f5146103da57600080fd5b8063120aa877116101c1578063120aa877146102ad578063228ba345146102f6578063248a9ca314610316578063263ba0031461034657600080fd5b806301ffc9a7146101f357806303edf91414610228578063042b81151461023d57806307e2cea51461026b575b600080fd5b3480156101ff57600080fd5b5061021361020e366004611dcf565b610807565b60405190151581526020015b60405180910390f35b61023b610236366004611e0f565b61083e565b005b34801561024957600080fd5b5061025d610258366004611e3b565b6109e9565b60405161021f929190611e77565b34801561027757600080fd5b5061029f7f68e79a7bf1e0bc45d0a330c573bc367f9cf464fd326078812f301165fbda4ef181565b60405190815260200161021f565b3480156102b957600080fd5b506102136102c8366004611ea9565b60009182526005602090815260408084206001600160a01b0393909316845291905290206002015460ff1690565b34801561030257600080fd5b5061029f610311366004611ecc565b610a43565b34801561032257600080fd5b5061029f610331366004611e3b565b60009081526020819052604090206001015490565b34801561035257600080fd5b50610366610361366004611e0f565b610a68565b60405161021f9190611f34565b34801561037f57600080fd5b50610388600481565b60405160ff909116815260200161021f565b3480156103a657600080fd5b5061023b6103b5366004611ea9565b610bfd565b3480156103c657600080fd5b5061023b6103d5366004611ea9565b610c28565b3480156103e657600080fd5b5061023b6103f5366004611e3b565b610c60565b34801561040657600080fd5b5061042e7f000000000000000000000000000000000000000000000000000000000000000081565b6040516001600160401b03909116815260200161021f565b34801561045257600080fd5b5061049b610461366004611ea9565b600560209081526000928352604080842090915290825290208054600182015460029092015460ff91821692918181169161010090041684565b6040805160ff90951685526020850193909352901515918301919091521515606082015260800161021f565b3480156104d357600080fd5b506102136104e2366004611ea9565b610e24565b3480156104f357600080fd5b5061023b610502366004611fce565b610e4d565b34801561051357600080fd5b5061042e6201518081565b34801561052a57600080fd5b50610213610539366004611e3b565b611104565b34801561054a57600080fd5b5061029f600081565b34801561055f57600080fd5b5061029f61056e366004611e3b565b611143565b34801561057f57600080fd5b5061059361058e366004611e3b565b611178565b60405161021f9190612097565b3480156105ac57600080fd5b5061029f6105bb366004611e3b565b60046020526000908152604090205481565b3480156105d957600080fd5b506103886105e8366004611e3b565b60076020526000908152604090205460ff1681565b34801561060957600080fd5b5061061d610618366004611e0f565b6111c0565b60405161021f999897969594939291906120a5565b34801561063e57600080fd5b506106d861064d366004611ea9565b6040805160808101825260008082526020820181905291810182905260608101919091525060008281526005602090815260408083206001600160a01b03851684528252918290208251608081018452815460ff9081168252600183015493820193909352600290910154808316151593820193909352610100909204161515606082015292915050565b60405161021f9190815160ff1681526020808301519082015260408083015115159082015260609182015115159181019190915260800190565b34801561071e57600080fd5b5061021361072d366004611e3b565b60066020526000908152604090205460ff1681565b34801561074e57600080fd5b5061023b61075d36600461211f565b6112b6565b34801561076e57600080fd5b5061023b61077d366004611ea9565b61140f565b34801561078e57600080fd5b5061029f61079d366004611ecc565b611434565b3480156107ae57600080fd5b5061029f6107bd366004611e3b565b611450565b3480156107ce57600080fd5b5061029f61148f565b3480156107e357600080fd5b506107f76107f2366004611e3b565b6114c9565b60405161021f9493929190612195565b60006001600160e01b03198216637965db0b60e01b148061083857506301ffc9a760e01b6001600160e01b03198316145b92915050565b61084781611548565b61085082611104565b61086d57604051634c39b1d560e01b815260040160405180910390fd5b6108768261156c565b610893576040516335d6971f60e01b815260040160405180910390fd5b346000036108b457604051631f2a200560e01b815260040160405180910390fd5b600082815260056020908152604080832033845290915290206002810154610100900460ff161561092557805460ff83811691161461090657604051634d9ded5560e11b815260040160405180910390fd5b3481600101600082825461091a91906121d9565b9091555061094c9050565b805460ff831660ff1990911617815534600182015560028101805461ff0019166101001790555b6000838152600360205260409020349060ff841660048110610970576109706121ec565b01600082825461098091906121d9565b9091555050600083815260046020526040812080543492906109a39084906121d9565b909155505060405134815260ff831690339085907f4f1eed5e863a822b0f9eb960dfdab2cc5a99beec4b191f2a7a9c7e28e5a155249060200160405180910390a4505050565b6109f1611d15565b600082815260036020908152604080832060049283905281842054825160808101938490529193909284919082845b815481526020019060010190808311610a20575050505050915091509150915091565b60036020528160005260406000208160048110610a5f57600080fd5b01549150829050565b610acb60405180610120016040528060006001600160a01b0316815260200160608152602001600081526020016000815260200160008152602001600081526020016000815260200160006001600160401b031681526020016000151581525090565b610ad482611548565b600083815260026020908152604080832060ff861684528252918290208251610120810190935280546001600160a01b031683526001810180549192840191610b1c90612202565b80601f0160208091040260200160405190810160405280929190818152602001828054610b4890612202565b8015610b955780601f10610b6a57610100808354040283529160200191610b95565b820191906000526020600020905b815481529060010190602001808311610b7857829003601f168201915b505050918352505060028201546020820152600382015460408201526004820154606082015260058201546080820152600682015460a08201526007909101546001600160401b03811660c0830152600160401b900460ff16151560e0909101529392505050565b600082815260208190526040902060010154610c18816115c3565b610c2283836115cd565b50505050565b6001600160a01b0381163314610c515760405163334bd91960e11b815260040160405180910390fd5b610c5b828261165f565b505050565b610c686116ca565b60008181526006602052604090205460ff16610c9757604051638cf7570760e01b815260040160405180910390fd5b600081815260056020908152604080832033845290915290206002810154610100900460ff161580610ccb57506001810154155b15610ce95760405163c68bdd8160e01b815260040160405180910390fd5b600281015460ff1615610d0f57604051633e81d50f60e01b815260040160405180910390fd5b60008281526007602052604081205460ff16906003198201610d3657506001820154610dc5565b600084815260036020526040812060ff841660048110610d5857610d586121ec565b0154905080600003610d705783600101549150610dc3565b835460ff848116911614610d97576040516312d37ee560e31b815260040160405180910390fd5b60008581526004602052604090205460018501548291610db69161223c565b610dc09190612253565b91505b505b60028301805460ff19166001179055610dde33826116f4565b604051818152339085907f4ec90e965519d92681267467f775ada5bd214aa92c0dc93d90a5e880ce9ed0269060200160405180910390a3505050610e2160018055565b50565b6000918252602082815260408084206001600160a01b0393909316845291905290205460ff1690565b7f68e79a7bf1e0bc45d0a330c573bc367f9cf464fd326078812f301165fbda4ef1610e77816115c3565b610e808a611548565b60008b81526006602052604090205460ff1615610eb057604051630cd9898f60e21b815260040160405180910390fd5b6001600160a01b038916610ed75760405163d92e233d60e01b815260040160405180910390fd5b85600003610ef857604051630fbc961960e31b815260040160405180910390fd5b60008b815260026020908152604080832060ff808f168552925290912060070154600160401b90041615610f3f5760405163534d00a560e01b815260040160405180910390fd5b6040518061012001604052808a6001600160a01b0316815260200189898080601f016020809104026020016040519081016040528093929190818152602001838380828437600081840152601f19601f820116905080830192505050505050508152602001878152602001868152602001858152602001848152602001838152602001426001600160401b0316815260200160011515815250600260008d815260200190815260200160002060008c60ff1660ff16815260200190815260200160002060008201518160000160006101000a8154816001600160a01b0302191690836001600160a01b03160217905550602082015181600101908161104491906122db565b506040828101516002830155606083015160038301556080830151600483015560a0830151600583015560c0830151600683015560e083015160079092018054610100909401511515600160401b0268ffffffffffffffffff199094166001600160401b03909316929092179290921790555160ff8b16908c907f235850e954bed10edfa88bf82baf45fea3a8550227b08befec25d4634671be8f906110ef908d908d908d9061239a565b60405180910390a35050505050505050505050565b60008181526006602052604081205460ff1615801561112b575061112782611143565b4210155b8015610838575061113b82611450565b421092915050565b60006108386001600160401b037f0000000000000000000000000000000000000000000000000000000000000000168361223c565b611180611d15565b60008281526008602052604090819020815160808101928390529160049082845b8154815260200190600101908083116111a15750505050509050919050565b6002602090815260009283526040808420909152908252902080546001820180546001600160a01b0390921692916111f790612202565b80601f016020809104026020016040519081016040528092919081815260200182805461122390612202565b80156112705780601f1061124557610100808354040283529160200191611270565b820191906000526020600020905b81548152906001019060200180831161125357829003601f168201915b505050506002830154600384015460048501546005860154600687015460079097015495969395929450909290916001600160401b03811690600160401b900460ff1689565b7f68e79a7bf1e0bc45d0a330c573bc367f9cf464fd326078812f301165fbda4ef16112e0816115c3565b60008781526006602052604090205460ff161561131057604051630cd9898f60e21b815260040160405180910390fd5b61131987611450565b4210156113395760405163f074b15360e01b815260040160405180910390fd5b6113428761156c565b61135f576040516335d6971f60e01b815260040160405180910390fd5b600080611370898989898989611789565b60008b8152600860205260409020919350915061138f90836004611d33565b506000898152600660209081526040808320805460ff1990811660011790915560078352818420805460ff87169216821790556004835292819020548151938452918301919091528a917fa84b34db2501e121a88fc451a0c042e40bd527d59fcfabd48e2b14532e4f66b6910160405180910390a2505050505050505050565b60008281526020819052604090206001015461142a816115c3565b610c22838361165f565b60086020528160005260406000208160048110610a5f57600080fd5b60007f00000000000000000000000000000000000000000000000000000000000000006001600160401b031661148583611143565b61083891906121d9565b60006114c46001600160401b037f00000000000000000000000000000000000000000000000000000000000000001642612253565b905090565b6000806114d4611d15565b600084815260066020908152604080832054600783528184205460088452828520600494859052838620548451608081019586905260ff948516969490931694919390929184919082845b81548152602001906001019080831161151f575050505050915093509350935093509193509193565b600460ff821610610e215760405163e6394a7760e01b815260040160405180910390fd5b6000805b600460ff821610156115ba57600083815260026020908152604080832060ff8086168552925290912060070154600160401b9004166115b25750600092915050565b600101611570565b50600192915050565b610e21813361191b565b60006115d98383610e24565b611657576000838152602081815260408083206001600160a01b03861684529091529020805460ff1916600117905561160f3390565b6001600160a01b0316826001600160a01b0316847f2f8788117e7eff1d82e926ec794901d17c78024a50270940304540a733656f0d60405160405180910390a4506001610838565b506000610838565b600061166b8383610e24565b15611657576000838152602081815260408083206001600160a01b0386168085529252808320805460ff1916905551339286917ff6391f5c32d9c69d2a47ea670b442974b53935d1edc7fd64eb21e047a839171b9190a4506001610838565b6002600154036116ed57604051633ee5aeb560e01b815260040160405180910390fd5b6002600155565b804710156117235760405163cf47918160e01b8152476004820152602481018290526044015b60405180910390fd5b600080836001600160a01b03168360405160006040518083038185875af1925050503d8060008114611771576040519150601f19603f3d011682016040523d82523d6000602084013e611776565b606091505b509150915081610c2257610c2281611958565b611791611d15565b6000806117a2898989898989611980565b905060008080805b600460ff821610156118fb57845161185f9060ff8316600481106117d0576117d06121ec565b602002015186604001518d8460ff16600481106117ef576117ef6121ec565b602002013588606001518c8660ff166004811061180e5761180e6121ec565b60200201358a60c001518f8860ff166004811061182d5761182d6121ec565b60200201358c60a001518d602001518a60ff1660048110611850576118506121ec565b60200201518e60800151611c18565b878260ff1660048110611874576118746121ec565b602002015260ff811615806118a1575083878260ff166004811061189a5761189a6121ec565b6020020151115b156118ce57868160ff16600481106118bb576118bb6121ec565b60200201519350809250600091506118f3565b83878260ff16600481106118e4576118e46121ec565b6020020151036118f357600191505b6001016117aa565b5080611907578161190a565b60045b945050505050965096945050505050565b6119258282610e24565b6119545760405163e2517d3f60e01b81526001600160a01b03821660048201526024810183905260440161171a565b5050565b80511561196757805160208201fd5b60405163d6bda27560e01b815260040160405180910390fd5b611988611d71565b60005b600460ff82161015611c0d57600088815260026020818152604080842060ff861680865292529092209081015490918990600481106119cc576119cc6121ec565b60200201351115611a34576002810154612710818a60ff8616600481106119f5576119f56121ec565b6020020135611a0491906123da565b611a0e919061223c565b611a189190612253565b835160ff841660048110611a2e57611a2e6121ec565b60200201525b8060040154868360ff1660048110611a4e57611a4e6121ec565b60200201351115611aa1578060040154868360ff1660048110611a7357611a736121ec565b6020020135611a8291906123da565b83602001518360ff1660048110611a9b57611a9b6121ec565b60200201525b6040830151835160ff841660048110611abc57611abc6121ec565b60200201511115611ae857825160ff831660048110611add57611add6121ec565b602002015160408401525b8260600151878360ff1660048110611b0257611b026121ec565b60200201351115611b2d57868260ff1660048110611b2257611b226121ec565b602002013560608401525b826080015183602001518360ff1660048110611b4b57611b4b6121ec565b60200201511115611b7a5782602001518260ff1660048110611b6f57611b6f6121ec565b602002015160808401525b8260a00151858360ff1660048110611b9457611b946121ec565b60200201351115611bbf57848260ff1660048110611bb457611bb46121ec565b602002013560a08401525b8260c00151848360ff1660048110611bd957611bd96121ec565b60200201351115611c0457838260ff1660048110611bf957611bf96121ec565b602002013560c08401525b5060010161198b565b509695505050505050565b600080611c258c8c611cdf565b90506000611c338b8b611cdf565b90506000611c418a8a611cdf565b90506000611c4f8989611cdf565b90506000611c5d8888611cdf565b90506064611c6c60058361223c565b611c7760058561223c565b611c82600a8761223c565b611c8d60198961223c565b611c9860378b61223c565b611ca291906121d9565b611cac91906121d9565b611cb691906121d9565b611cc091906121d9565b611cca9190612253565b955050505050509a9950505050505050505050565b600081600003611cf157506000610838565b81611d04670de0b6b3a76400008561223c565b611d0e9190612253565b9392505050565b60405180608001604052806004906020820280368337509192915050565b8260048101928215611d61579160200282015b82811115611d61578251825591602001919060010190611d46565b50611d6d929150611dba565b5090565b6040518060e00160405280611d84611d15565b8152602001611d91611d15565b815260200160008152602001600081526020016000815260200160008152602001600081525090565b5b80821115611d6d5760008155600101611dbb565b600060208284031215611de157600080fd5b81356001600160e01b031981168114611d0e57600080fd5b803560ff81168114611e0a57600080fd5b919050565b60008060408385031215611e2257600080fd5b82359150611e3260208401611df9565b90509250929050565b600060208284031215611e4d57600080fd5b5035919050565b8060005b6004811015610c22578151845260209384019390910190600101611e58565b60a08101611e858285611e54565b8260808301529392505050565b80356001600160a01b0381168114611e0a57600080fd5b60008060408385031215611ebc57600080fd5b82359150611e3260208401611e92565b60008060408385031215611edf57600080fd5b50508035926020909101359150565b6000815180845260005b81811015611f1457602081850181015186830182015201611ef8565b506000602082860101526020601f19601f83011685010191505092915050565b60208152611f4e6020820183516001600160a01b03169052565b60006020830151610120806040850152611f6c610140850183611eee565b91506040850151606085015260608501516080850152608085015160a085015260a085015160c085015260c085015160e085015260e0850151610100611fbc818701836001600160401b03169052565b90950151151593019290925250919050565b6000806000806000806000806000806101208b8d031215611fee57600080fd5b8a359950611ffe60208c01611df9565b985061200c60408c01611e92565b975060608b01356001600160401b038082111561202857600080fd5b818d0191508d601f83011261203c57600080fd5b81358181111561204b57600080fd5b8e602082850101111561205d57600080fd5b9b9e9a9d50989b6020919091019a996080820135995060a0820135985060c0820135975060e0820135965061010090910135945092505050565b608081016108388284611e54565b6001600160a01b038a168152610120602082018190526000906120ca8382018c611eee565b604084019a909a5250506060810196909652608086019490945260a085019290925260c08401526001600160401b031660e083015215156101009091015292915050565b806080810183101561083857600080fd5b6000806000806000806102a0878903121561213957600080fd5b8635955061214a886020890161210e565b94506121598860a0890161210e565b935061216988610120890161210e565b9250612179886101a0890161210e565b915061218988610220890161210e565b90509295509295509295565b841515815260ff8416602082015260e081016121b46040830185611e54565b8260c083015295945050505050565b634e487b7160e01b600052601160045260246000fd5b80820180821115610838576108386121c3565b634e487b7160e01b600052603260045260246000fd5b600181811c9082168061221657607f821691505b60208210810361223657634e487b7160e01b600052602260045260246000fd5b50919050565b8082028115828204841417610838576108386121c3565b60008261227057634e487b7160e01b600052601260045260246000fd5b500490565b634e487b7160e01b600052604160045260246000fd5b601f821115610c5b576000816000526020600020601f850160051c810160208610156122b45750805b601f850160051c820191505b818110156122d3578281556001016122c0565b505050505050565b81516001600160401b038111156122f4576122f4612275565b612308816123028454612202565b8461228b565b602080601f83116001811461233d57600084156123255750858301515b600019600386901b1c1916600185901b1785556122d3565b600085815260208120601f198616915b8281101561236c5788860151825594840194600190910190840161234d565b508582101561238a5787850151600019600388901b60f8161c191681555b5050505050600190811b01905550565b6001600160a01b03841681526040602082018190528101829052818360608301376000818301606090810191909152601f909201601f1916010192915050565b81810381811115610838576108386121c356fea2646970667358221220e6fa9f947eaa4f69e6c778ab5d388d744aa04fc23c061fd226955e4aaf6b76db64736f6c63430008180033",
  "linkReferences": {},
  "deployedLinkReferences": {}
}